:100000000C9470030C9498030C9498030C9498032C
:100010000C9498030C9498030C9498030C949803F4
:100020000C9498030C9498030C94AB0B0C941A0C3E
:100030000C9498030C9498030C9498030C949803D4
:100040000C9498030C9498030C9498030C949803C4
:100050000C9498030C9498030C9498030C94610BE3
:100060000C9498030C9498030C9498030C949803A4
:100070000C9498030C9498030C9498030C94980394
:100080000C9498030C9498030C9498030C94980384
:100090000C9498030C9498030C9498030C94980374
:1000A0000C9498030C9498030C949803000000009F
:1000B000003E5B4F5B3E3E6B4F6B3E1C3E7C3E1CEE
:1000C000183C7E3C181C577D571C1C5E7F5E1C0034
:1000D000183C1800FFE7C3E7FF0018241800FFE7EB
:1000E000DBE7FF30483A060E2629792926407F05AE
:1000F0000507407F05253F5A3CE73C5A7F3E1C1CC4
:1001000008081C1C3E7F14227F22145F5F005F5F83
:1001100006097F017F006689956A6060606060946F
:10012000A2FFA29408047E040810207E2010080874
:100130002A1C08081C2A08081E101010100C1E0C7F
:100140001E0C30383E3830060E3E0E060000000011
:100150000000005F00000007000700147F147F14F8
:10016000242A7F2A1223130864623649562050003D
:1001700008070300001C2241000041221C002A1C29
:100180007F1C2A08083E0808008070300008080814
:100190000808000060600020100804023E51494534
:1001A0003E00427F400072494949462141494D3352
:1001B0001814127F1027454545393C4A49493141B9
:1001C000211109073649494936464949291E000087
:1001D00014000000403400000008142241141414DC
:1001E0001414004122140802015909063E415D59C8
:1001F0004E7C1211127C7F494949363E41414122D1
:100200007F4141413E7F494949417F090909013EFA
:10021000414151737F0808087F00417F4100204021
:10022000413F017F081422417F404040407F021C33
:10023000027F7F0408107F3E4141413E7F0909094A
:10024000063E4151215E7F09192946264949493216
:1002500003017F01033F4040403F1F2040201F3FDC
:100260004038403F63140814630304780403615961
:10027000494D43007F4141410204081020004141A3
:10028000417F04020102044040404040000307084F
:100290000020545478407F2844443838444444284B
:1002A000384444287F385454541800087E090218F2
:1002B000A4A49C787F0804047800447D400020407A
:1002C000403D007F1028440000417F40007C0478BE
:1002D00004787C080404783844444438FC18242406
:1002E0001818242418FC7C08040408485454542486
:1002F00004043F44243C4040207C1C2040201C3C03
:100300004030403C44281028444C9090907C4464F9
:10031000544C44000836410000007700000041368C
:10032000080002010204023C2623263C1EA1A16112
:10033000123A4040207A3854545559215555794144
:100340002154547841215554784020545579400C1B
:100350001E527212395555555939545454593955FC
:100360005454580000457C410002457D420001453F
:100370007C40F0292429F0F0282528F07C545545AC
:10038000002054547C547C0A097F4932494949323F
:100390003248484832324A4848303A4141217A3A54
:1003A00042402078009DA0A07D39444444393D401E
:1003B00040403D3C24FF2424487E4943662B2FFCCB
:1003C0002F2BFF0929F620C0887E09032054547979
:1003D000410000447D413048484A32384040227A4A
:1003E000007A0A0A727D0D19317D2629292F2826C7
:1003F0002929292630484D402038080808080808CF
:100400000808382F10C8ACBA2F102834FA00007B27
:10041000000008142A142222142A1408950022002D
:1004200095AA005500AAAA55AA55AA000000FF00E7
:10043000101010FF00141414FF001010FF00FF1024
:1004400010F010F0141414FC001414F700FF000056
:10045000FF00FF1414F404FC141417101F10101FD5
:10046000101F1414141F00101010F0000000001FC3
:10047000101010101F10101010F010000000FF10CE
:100480001010101010101010FF10000000FF1400CA
:1004900000FF00FF00001F10170000FC04F41414FC
:1004A0001710171414F404F40000FF00F7141414C8
:1004B00014141414F700F7141414171410101F1048
:1004C0001F141414F4141010F010F000001F101F6B
:1004D0000000001F14000000FC140000F010F010D9
:1004E00010FF10FF141414FF141010101F00000050
:1004F00000F010FFFFFFFFFFF0F0F0F0F0FFFFFF54
:100500000000000000FFFF0F0F0F0F0F38444438AA
:10051000447C2A2A3E147E02020606027E027E02E5
:1005200063554941633844443C04407E201E200604
:10053000027E020299A5E7A5991C2A492A1C4C7241
:1005400001724C304A4D4D303048784830BC625AC8
:10055000463D3E494949007E0101017E2A2A2A2A58
:100560002A44445F444440514A444040444A514034
:100570000000FF0103E080FF000008086B6B0836F5
:1005800012362436060F090F060000181800000066
:100590001010003040FF0101001F01011E00191D55
:1005A0001712003C3C3C3C0000000000080B00021D
:1005B00002020000090400000102020000052400FC
:1005C000100105240101010424020605240600018E
:1005D0000705810310004009040100020A00000021
:1005E00007050202400000070583024000000403E3
:1005F000090412010002EF0201404123368000018C
:100600000102030141726475696E6F204C4C430016
:1006100041726475696E6F204C656F6E6172646FB4
:1006200000F0F89C8E8783878E9CF8F00000FEFF18
:100630000303030303070EFCF80000FEFF0303039C
:100640000303070EFCF80000FFFF0000000000009D
:1006500000FFFF0000FEFF8383838383C7EE7C38A7
:100660000000F8FC0E07030303070EFCF800003F30
:100670007FE0C08080C0E07F3FFFFF0101010101FA
:100680000101FFFF0000FFFF0C0C0C0C1C3E77E388
:10069000C100007FFFC0C0C0C0C0E0703F1F0000AD
:1006A0001F3F70E0C0C0C0E0703F1F00007FFFC16F
:1006B000C1C1C1C1E3773E1C00001F3F70E0C0C054
:1006C000C0E0703F1F000000000001FFFF010000BC
:1006D00000D5F08D14A1C881CFD9F1AF2000AF0EA5
:1006E00011241FBECFEFDAE0DEBFCDBF11E0A0E0E6
:1006F000B1E0E0E8F1E302C005900D92A63BB1073E
:10070000D9F727E0A6EBB1E001C01D92A130B207F6
:10071000E1F713E0C0E7D3E004C02197FE010E9497
:10072000E617CF36D107C9F70E941F0F0C94BE18E9
:100730000C9400009C01480F592F511D4115510583
:1007400061F1803891054CF54138510514F040E8CD
:1007500050E0421BCB018770992791E001C0990FAF
:100760008A95EAF777FF02C0695F7F4FFB0183E05C
:10077000F595E7958A95E1F7F695FE2FEE27F79523
:10078000E795E20FF31FE052FE4F415030F08191A8
:10079000DF011197892B8C93F8CF0895209145069E
:1007A000621760F470E0660F771F20914606309163
:1007B0004706620F731FFB01918380830895E0EE6B
:1007C000F1E0A0E0B8E000800EBC8111012C11978F
:1007D000A0FDFDCF0192B9F70DB40895FC01809101
:1007E000DF01882311F13FB7F89482E08093E9009C
:1007F0002091F200822F90E01816190614F481E07F
:1008000090E0882339F0289844E64093DE01409137
:10081000F1004083222339F02091F200211103C01E
:100820002BE62093E8003FBF08958FEF9FEF0895D8
:100830002FB7F89483E08093E9009091E800892F26
:10084000807295FF04C09091F20080E4891B2FBF55
:1008500008958091D60181110DC082E08093D2016C
:1008600084E08093D3011092D5011092D40181E0ED
:100870008093D60182ED91E008953FB7F89480917E
:10088000CE019091CF01A091D001B091D10126B5B8
:10089000A89B05C02F3F19F00196A11DB11D3FBFB8
:1008A000BA2FA92F982F8827BC01CD01620F711D87
:1008B000811D911D42E0660F771F881F991F4A9581
:1008C000D1F708958F929F92AF92BF92CF92DF920D
:1008D000EF92FF926B017C010E943D044B015C0191
:1008E000C114D104E104F104B9F00E943D04681977
:1008F00079098A099B09683E73408105910580F357
:1009000021E0C21AD108E108F10888EE880E83E0E0
:10091000981EA11CB11CE4CFFF90EF90DF90CF9008
:10092000BF90AF909F908F9008954091B8015091E3
:10093000B9012091B6013091B70142175307B4F4C1
:100940009091E8009570E1F39091E80092FD19C054
:100950008093F1008091B8019091B90101968F7355
:100960009927892B19F48EEF8093E8008091B801C4
:100970009091B90101969093B9018093B80181E0FB
:10098000089580E00895DF92EF92FF920F931F93F6
:10099000CF93DF93D82E8A01EB017B01E40EF51E85
:1009A000CE15DF0559F0D7FE12C0FE0184910E94DA
:1009B000950421968111F4CF0FEF1FEFC801DF914D
:1009C000CF911F910F91FF90EF90DF900895888154
:1009D000EECF0F931F93CF93DF931F92CDB7DEB768
:1009E00082E0898342E450E06CEA75E080E80E948E
:1009F000C3040E942904DC0112960D911C9101157B
:100A0000110589F0D801ED91FC910280F381E02D70
:100A1000BE016F5F7F4FC801099597FD04C0F801C3
:100A200000851185ECCF89810F90DF91CF911F91C7
:100A30000F910895615030F02091F100FC01208366
:100A40000196F8CF289884E68093DE010895AF924E
:100A5000BF92CF92DF92EF92FF920F931F93CF93AB
:100A6000DF936C017B018B01040F151FEB015E010D
:100A7000AE18BF08C017D10759F06991D601ED91A2
:100A8000FC910190F081E02DC6010995892B79F741
:100A9000C501DF91CF911F910F91FF90EF90DF90F3
:100AA000CF90BF90AF9008958F929F92AF92BF92D8
:100AB000CF92DF92EF92FF920F931F93CF93DF932A
:100AC0006C017B018A0180910B01882309F45CC0D1
:100AD0008091DF01882309F457C08091BC0180FF19
:100AE00005C08091E00082608093E000E801B12CB5
:100AF0008AEFA82E93E0892E2AE3922E209711F4F4
:100B0000BB20D9F10E94180481110AC0AA94AA201E
:100B1000D9F161E070E080E090E00E946204EECFE5
:100B20008C171D0611F00CF08C2F9FB7F894809253
:100B3000E9002091E80025FD02C09FBFDFCF282FEC
:100B400030E0C21BD30BF701815020F0419140935C
:100B5000F100FACFE20EF31EBB2021F09092E800E4
:100B6000B12CEBCF8091E80085FDE7CF9092E800B3
:100B7000BB24B394209709F3F3CF5D9884E6809368
:100B8000BB01101611063CF081E090E0F601938362
:100B9000828310E000E0C801DF91CF911F910F9197
:100BA000FF90EF90DF90CF90BF90AF909F908F908D
:100BB0000895CF93DF931F92CDB7DEB76983DC0131
:100BC000ED91FC910280F381E02D41E050E0BE0107
:100BD0006F5F7F4F09950F90DF91CF91089583E06C
:100BE0008093E9008091F200882319F08AE38093D2
:100BF000E80008950E94180490E00895CF93DF93D1
:100C00001F92CDB7DEB7FC018485958597FD08C09E
:100C10002FEF3FEF358724870F90DF91CF91089515
:100C2000CE0101960E94EE03019719F4898190E0AC
:100C3000F3CF8FEF9FEFF0CF0F931F93CF93DF93FF
:100C40001F92CDB7DEB78C01FC018485958597FF97
:100C50000BC0CE0101960E94EE03019771F48981C9
:100C600090E0F80195878487F801848595850F9039
:100C7000DF91CF911F910F9108958FEF9FEFF1CFEB
:100C8000FC018485958597FD0BC09FB7F89482E0A1
:100C90008093E9008091F2009FBF90E00196089553
:100CA0009FB7F89482E08093E9008091F2009FBFA3
:100CB00090E008952D9A0895BC0190E080E00C9496
:100CC00062048FB18095807F669B88601C9B8460E6
:100CD000089580E00C94DF0380389105B8F4603407
:100CE0007105A0F420E191E061FD94E060FD990FB1
:100CF00062FD9295687F269FD0011124A80FA05213
:100D0000BE4F8C9140FF03C0892B8C930895909522
:100D10008923FBCFEF92FF920F931F93CF93DF9323
:100D20007C01EB018B01040F111DC8010134110579
:100D300014F080E490E0C817D9073CF441E0BE010C
:100D4000C7010E946C062196F0CFDF91CF911F91D1
:100D50000F91FF90EF9008958F929F92AF92BF9264
:100D6000CF92DF92EF92FF920F931F93CF93DF9377
:100D70006D3089F0C090C501D090C6016A30D1F4C1
:100D80001092C4011092C30188E0C80ED11CD09209
:100D9000C601C092C50181E090E0DF91CF911F9123
:100DA0000F91FF90EF90DF90CF90BF90AF909F900A
:100DB0008F9008950091C3011091C401E5E06E9FEA
:100DC000E0011124C455DF4F4801F12CF5E0E12C7E
:100DD000FF1629F0CE010196FE01E490EC01B12C42
:100DE000A12C4E2D4170B6016A0D7B1DC4010E94DD
:100DF0006C06E694FFEFAF1ABF0A88E0A816B104AC
:100E000081F7F394EFEF8E1A9E0AF6E0FF12DECF21
:100E10000A5F1F4F1093C4010093C301BCCFDC01D4
:100E200018968D919C91DC01ED91FC910190F081DF
:100E3000E02D099404970C940F07FC01858590E040
:100E40000196A085B18519966C9170E00E94BE173D
:100E500085870895FC01848590E00196A085B18581
:100E600019966C9170E00E94BE1784870895FC016A
:100E70008085918522853385318720879387828776
:100E80000895FC0122813381D901AE59BF4F4C91A5
:100E90004C30C0F4E42FF0E0EE0FFF1FE20FF31F21
:100EA00061E270E07383628360E870E0738F628F49
:100EB0006DED77E073AB62ABE65BFF4F91838083B0
:100EC0004F5F4C934C914C30C0F4E42FF0E0EE0FA8
:100ED000FF1FE20FF31F61E270E07383628360E142
:100EE00070E0738F628F6DE177E073AB62ABE65BAE
:100EF000FF4F918380834F5F4C934C914C30C0F4F3
:100F0000E42FF0E0EE0FFF1FE20FF31F61E270E04D
:100F10007383628360E270E0738F628F6FEC77E0BF
:100F200073AB62ABE65BFF4F918380834F5F4C9363
:100F30004C914C30C0F4E42FF0E0EE0FFF1FE20FB5
:100F4000F31F61E270E07383628360E470E0738F8B
:100F5000628F6AE277E073AB62ABE65BFF4F91832F
:100F600080834F5F4C934C914C30C0F4E42FF0E001
:100F7000EE0FFF1FE20FF31F21E030E033832283E7
:100F800028E030E0338F228F27E337E033AB22AB0A
:100F9000E65BFF4F918380834F5F4C930895FC0184
:100FA000A085B18519968C919485911104C09FEF0D
:100FB000980F948708959150FCCFFC01A085B185CE
:100FC00019968C919585911104C09FEF980F958784
:100FD00008959150FCCF2F923F924F925F926F9263
:100FE0007F928F929F92AF92BF92CF92DF92EF92B9
:100FF000FF920F931F93CF93DF9300D000D000D0C8
:10100000CDB7DEB78C01DC011996BC91B983FC0128
:101010008481882339F06B2F70E08EE390E00E948A
:10102000BE176087D80118968C911897E981E89FC0
:10103000802D112489838E5F8B8317968C9117974F
:10104000880FF981F80FF98316969C911697C92E8F
:10105000D12C15968C91E82EF12C903428F44F2F3A
:10106000B601C7010E949A03B6012B81620F711D60
:10107000615071096034710520F44981C7010E94F3
:101080009A034B81B601C7010E948A06C7013981C4
:10109000830F911D4B81B60101970E948A06712C26
:1010A000612CD80119968C9190E0681679060CF0A5
:1010B000AFC0FC013197FA83E9839301220F331FFC
:1010C0003C832B83D8011896FC9018971796BC91F7
:1010D000EB2FF0E0FE83ED832F2D30E0D801169644
:1010E000AC901697EA0DF11D5F01629EC001639EF0
:1010F000900D729E900D1124A80EB91E19968C9118
:101100008150B9818B1BF80195814D815E81490F1A
:10111000511D8F9D400D511D11245E834D836A0129
:10112000C20ED31E0284F385E02D8B819C81E80FD3
:10113000F91F4081518181E090E002C0880F991F22
:10114000BA95E2F784239523892B09F444C07901E9
:10115000EA0CFB1CAD81BE81CA16DB0654F09E2D45
:101160008F2D7501A92EB82E9C2D8D2D6D019D837F
:101170008E832D803E802C183D0825014E185F0877
:1011800057FE03C0519441945108410137FE03C0FA
:10119000BFEF8B1A9B0A9594879481E0EA14FB04B5
:1011A0000CF08FEFA82E880FBB08ED81FE81EC15A7
:1011B000FD0514F141E0B701C6010E946C068418D8
:1011C000950897FE04C0EA0CFB1C820C931CFFEFF1
:1011D000CF1ADF0AEACF2D813E812C153D0564F43C
:1011E0004F2DB501C9010E948A064D815E814F5F76
:1011F0005F4F5E834D83EFCF89819A8101979A83F8
:101200008983019609F05ECFBFEF6B1A7B0A49CF45
:1012100026960FB6F894DEBF0FBECDBFDF91CF91FB
:101220001F910F91FF90EF90DF90CF90BF90AF9004
:101230009F908F907F906F905F904F903F902F90F6
:101240000895089590E080E00895FB01019000204A
:10125000E9F73197AF01461B570BDC01ED91FC918B
:101260000280F381E02D09948F929F92AF92BF92FA
:10127000EF92FF920F931F93CF93DF93CDB7DEB71B
:10128000A1970FB6F894DEBF0FBECDBF7C01FA0167
:10129000CB0119A2223008F42AE08E010F5D1F4F06
:1012A000822E912CB12CA12CBF01A50194010E948A
:1012B0008D17F901CA016A300CF5605DD8016E9393
:1012C0008D01232B242B252B79F790E080E01097BC
:1012D00021F0BD01C7010E942509A1960FB6F8941F
:1012E000DEBF0FBECDBFDF91CF911F910F91FF9059
:1012F000EF90BF90AF909F908F900895695CDECF84
:10130000CF93DF93BC0180EE95E00E942509EC01AC
:101310006EE571E080EE95E00E9425098C0F9D1F1F
:10132000DF91CF910895CF92DF92EF92FF920F93CA
:101330001F93CF93DF936B01770FEE08FF08F7FE43
:101340001FC0EC01E881F9810190F081E02D6DE290
:1013500009958C0144275527BA014C195D096E097E
:101360007F092AE0CE010E943409800F911FDF918E
:10137000CF911F910F91FF90EF90DF90CF90089544
:101380002AE0B701A601DF91CF911F910F91FF9045
:10139000EF90DF90CF900C943409CF92DF92EF92D0
:1013A000FF920F931F93CF93DF93EC011092C40130
:1013B0001092C30180E290E09093C6018093C50132
:1013C000688579858A819B810E9493091092C40166
:1013D0001092C30188E290E09093C6018093C5010A
:1013E0006A857B858A819B810E9493091092C40142
:1013F0001092C30180E390E09093C6018093C501F1
:1014000061E671E08A819B810E9425090A811B8126
:101410000E943D04CC84DD84EE84FF84AB01BC01DA
:101420004C195D096E097F092AE0C801DF91CF914F
:101430001F910F91FF90EF90DF90CF900C943409A3
:10144000CF93DF93EC0188819981009711F00E947E
:10145000AC15198218821D821C821B821A82DF91B0
:10146000CF910895FC0180819181009711F00C9437
:10147000AC1508950F931F93CF93DF93EC017B83FB
:101480006A838BE191E09983888381E08C8390E487
:101490009D831E828F8384E088874987042F10E014
:1014A000C801880F991F009711F481E090E00E9415
:1014B00010158A879B87FC0190E080E080179107D8
:1014C00024F4119211920196F9CFDF91CF911F91DF
:1014D0000F9108950C940E170E94A9180F931F9353
:1014E000CF93DF93EC0188819981009759F02A818D
:1014F0003B812617370730F081E0DF91CF911F91B4
:101500000F9108958B016F5F7F4F0E94EC1700973A
:1015100059F0998388831B830A832C813D81232B77
:1015200059F7FC011082E8CF80E0E7CFEF92FF92FD
:101530000F931F93CF93DF936115710541F480E002
:10154000DF91CF911F910F91FF90EF90089541157A
:101550005105B1F07B01EC010C811D81040F151FB9
:10156000B8010E946E0A882351F3288139818C8149
:101570009D81B701820F931F0E94B7181D830C83B2
:1015800081E0DECFCF93DF93EC01FB0144815581F5
:10159000608171810E94960A811103C0CE010E9470
:1015A000200ACE01DF91CF910895FB01448155813E
:1015B000608171810C94960AEF92FF920F931F93B2
:1015C000CF93DF93EC017B018A01BA010E946E0A7E
:1015D00081110BC0CE010E94200ACE01DF91CF9174
:1015E0001F910F91FF90EF9008951D830C83B70119
:1015F000888199810E94B718F0CFEF92FF920F93E4
:101600001F93CF93DF93CDB7DEB729970FB6F8942A
:10161000DEBF0FBECDBF8C01862FF8011182108274
:1016200013821282158214824AE09E012F5F3F4F7F
:101630007901B90190E00E94E416F70101900020C1
:10164000E9F73197AF014E195F09B701C8010E9450
:10165000DC0A29960FB6F894DEBF0FBECDBFDF912E
:10166000CF911F910F91FF90EF900895FB01DC0146
:1016700011961C921E9213961C921E92129715960A
:101680001C921E9214978617970749F0608171810A
:101690006115710521F0448155810C94DC0A08958F
:1016A000FC01118210821382128215821482FB01C6
:1016B00001900020E9F73197AF01461B570B0C94BE
:1016C000DC0A1F920F920FB60F9211242F933F93B3
:1016D0008F939F93AF93BF938091CA019091CB0159
:1016E000A091CC01B091CD013091C90123E0230F2D
:1016F0002D3758F50196A11DB11D2093C901809386
:10170000CA019093CB01A093CC01B093CD018091FD
:10171000CE019091CF01A091D001B091D10101965D
:10172000A11DB11D8093CE019093CF01A093D00154
:10173000B093D101BF91AF919F918F913F912F9124
:101740000F900FBE0F901F90189526E8230F02965A
:10175000A11DB11DD2CF1F920F920FB60F9211246F
:101760008F939F938091E1009091E100937F9093FC
:10177000E10083FF0FC01092E90091E09093EB002D
:101780001092EC0092E39093ED001092DF0198E04C
:101790009093F00082FF22C093E09093E900909133
:1017A000F200992319F09AE39093E8009091BB011D
:1017B000992341F09091BB0191509093BB019111FD
:1017C00001C05D9A9091DE01992341F09091DE0174
:1017D00091509093DE01911101C0289A84FF18C0A6
:1017E0008091E2008E7E81608093E2008091E10032
:1017F0008F7E8093E1008091BC018E7E806180931A
:10180000BC019F918F910F900FBE0F901F90189564
:1018100080FFF7CF8091E2008E7E80618093E200AE
:101820008091E1008E7E8093E1008091BC018E7EEC
:101830008160E5CF1F920F920FB60F921124CF92C5
:10184000DF92EF92FF920F931F932F933F934F934B
:101850005F936F937F938F939F93AF93BF93EF9318
:10186000FF93CF93DF93CDB7DEB76C97DEBFCDBFCD
:101870001092E9008091E80083FF25C068E0CE0166
:1018800045960E941A0582EF8093E8008D8987FFB4
:1018900039C09091E80090FFFCCF982F907609F026
:1018A00034C19E894F89588D2F89F88C911131C090
:1018B000803861F58091BD018093F1001092F100B4
:1018C0008EEF8093E8006C960FB6F894DEBF0FBEE3
:1018D000CDBFDF91CF91FF91EF91BF91AF919F91DC
:1018E0008F917F916F915F914F913F912F911F91B8
:1018F0000F91FF90EF90DF90CF900F900FBE0F9061
:101900001F9018959EEF9093E800C7CF1092F100BA
:10191000D5CF913059F48111D3CF4130510581F6A3
:101920008091BD018D7F8093BD01CACF933049F472
:101930008111C6CF4130510519F68091BD018260F9
:10194000F2CF953041F48091E80080FFFCCF206811
:101950002093E300B5CF963009F0A9C00B8D1C8D04
:1019600022E01092E9001092B9011092B801F2122F
:101970002EC01092B7011092B6010E94E9041F8296
:1019800099E09983FA8291E09E8390EA98879AEF92
:1019900099872091B8013091B901275F3F4F3C836F
:1019A0002B838D831092E9001092B9011092B80137
:1019B0001093B7010093B60149E050E0BE016F5F9C
:1019C0007F4F80E00E94C3040E94E90479CF109306
:1019D000B7010093B6010E942904DC0112960D9113
:1019E0001C910115110509F451C1D801ED91FC912B
:1019F0000480F581E02DBE016B5E7F4FC801099523
:101A0000009709F03EC1F80100851185EACFF3E0A7
:101A1000FF120EC08F89882309F440C0823061F420
:101A200040E860E180E196E00E944C0E811148CFD1
:101A300081E28093EB0047CF813029F440E86BE0EE
:101A400084E096E0F1CF833099F70E942904DC010D
:101A50001296ED90FC908E010F5F1F4F6801E1140C
:101A6000F10479F0D701ED91FC910680F781E02D2A
:101A7000B801C7010995080F111DF701E084F18431
:101A8000EECFD8011C92F60101900020E9F73197C2
:101A9000BF016C197D0940E0C601C6CF6EEE75E04E
:101AA000FB01449150E080E80E94C30409CF9730C5
:101AB00009F4BECF983021F481E08093F10000CF8B
:101AC000993009F0FDCE837009F0B2CFEEE1F1E07C
:101AD00081E031E096E32191222371F08093E900C7
:101AE0003093EB00DF0111972C912093EC00909341
:101AF000ED008F5F873079F78EE78093EA001092D0
:101B0000EA008F898093DF01DBCE8B8D9C8D109254
:101B1000E9001092B9011092B8019093B701809337
:101B2000B601898D811192C08E899D89913A49F4BF
:101B3000813209F07DCF47E050E064E071E080E061
:101B4000B3CF913209F074CF833269F48F89988DC5
:101B5000B0E0A0E08093000190930101A093020106
:101B6000B0930301ADCE803269F48091E80082FF2A
:101B7000FCCF67E084E091E00E941A058BEF809330
:101B8000E8009ECE823209F09BCE8F8980930B01B4
:101B9000EEEFFFE7859194918B3F9C4D51F1E0E092
:101BA000F8E08091040190910501A0910601B091A7
:101BB0000701803B9440A105B105F1F480910B0130
:101BC00080FD1AC0EE3F8AE0F80789F587E797E7BE
:101BD00091838083809160008093BA0188E19BE0CB
:101BE0000FB6F894A895809360000FBE90936000A4
:101BF00067CEEEEFFAE0D5CF8081918187379747A6
:101C000009F05ECEA89580916000886180936000A5
:101C10008091BA0180936000EE3F2AE0F20789F0DC
:101C20008091FE0A9091FF0A9183808349CE808142
:101C300091818737980751F29093FF0A8093FE0AAB
:101C4000C5CF1092FF0A1092FE0A3ACE0E942904D4
:101C5000DC0112960D911C910115110509F4E8CED5
:101C6000D801ED91FC910190F081E02DBE016B5EF9
:101C70007F4FC8010995811123CEF8010085118598
:101C8000EBCF181619060CF41BCED2CEF1E0FF12E2
:101C9000BECE62EF75E004CFEF92FF920F931F93D9
:101CA000CF93DF93F82E192FE62E042F81E0860FB5
:101CB000880F0E94950483E00E949504CF2DD12FB8
:101CC000EC0EFD2EF11CCE15DF05B9F007FF13C099
:101CD000FE0184910E949504182F80E00E949504D3
:101CE000812321968111EFCFDF91CF911F910F9129
:101CF000FF90EF9008958881EDCF81E0F5CF0F93AD
:101D00001F93CF93DF931F92CDB7DEB78C010E9454
:101D10003D04F80164877587868797872091FD06C3
:101D20003091FE06CE0101962115310591F48150C6
:101D30009740F80191878087228533858217930722
:101D400014F4938782870F90DF91CF911F910F91A9
:101D50000895821B930BEDCF04970C947F0ECF93C5
:101D6000DF93E0EEF5E01382128288EE93E0A0E0CC
:101D7000B0E084839583A683B78386E391E0918363
:101D800080838FEF9FEF95878487A9EFB6E0139646
:101D90001C921E92129786E591E011969C938E9369
:101DA0001092F806E7EEF6E0B383A28388EF96E0A0
:101DB0009783868388E491E09183808380E591E036
:101DC0009583848381E0808BE1ECF6E010821182C0
:101DD0001282138214821582168217829AE09087EB
:101DE00098E0AAECB6E0ED01292F19922A95E9F7BF
:101DF000A2EDB6E0ED0119929A95E9F79EE193A361
:101E000014A285A31092C006F0935F06E0935E06CD
:101E100086E1E8E4F6E0DF011D928A95E9F74FE0FC
:101E200069EF76E08CE396E00E943A0A4FE069EFB2
:101E300076E080E396E0DF91CF910C943A0ACF935D
:101E4000DF93CDB7DEB7A8970FB6F894DEBF0FBE0D
:101E5000CDBF789484B5826084BD84B5816084BD33
:101E600085B5826085BD85B5816085BD80916E0038
:101E7000816080936E001092810080918100826069
:101E800080938100809181008160809381008091A6
:101E900080008160809380008091910082608093B7
:101EA00091008091910081608093910080919000D9
:101EB0008160809390008091C10084608093C10014
:101EC0008091C10082608093C1008091C1008160D7
:101ED0008093C1008091C30081608093C300809192
:101EE000C00082608093C0008091C20081608093B6
:101EF000C20080917A00846080937A0080917A0099
:101F0000826080937A0080917A00816080937A0069
:101F100080917A00806880937A001092DF0110929D
:101F2000BD011092BC018091D70081608093D700E1
:101F300080EA8093D80089B5806189BD89B58260C7
:101F400089BD09B400FEFDCF61E070E080E090E063
:101F50000E9462048091D8008F7C80618093D800B9
:101F60008091E000807F8093E0008091E1008E7E90
:101F70008093E1008DE08093E200559A209A8FEFE4
:101F80009FEF9093ED058093EC0510910B016AE0B3
:101F900070E080E090E00E9462041123B1F384E6D7
:101FA00091E00E94800981EC80937C0085B1806F74
:101FB00085B984B1877E84B984B1876E84B95E9A0D
:101FC0005F988AB1806D8AB9769A6E9881B3806F76
:101FD00081BB899880B38D7080BB80E58CBD81E02A
:101FE0008DBD85E090E00E945C065F9A85E090E000
:101FF0000E945C065E985C98E1EDF6E08EED96E05E
:1020000024912EBD00000DB407FEFDCF31968E1732
:102010009F07B1F75C9A81E8809364008091650026
:102020008160809365000E9469060E94610687FFB7
:1020300015C05C9885EA8EBD00000DB407FEFDCF8B
:102040005C9A2E982F982D988091640080628093DE
:10205000640081E083BF889513BEFCCF0E946106B7
:1020600082FF48C02D980E94610684788438E1F48C
:102070000E945A0688EC90E00E945C062F9882E04D
:1020800090E00E940E178F3F29F06FEF82E090E002
:102090000E94161784EF91E00E945C062F9A0E941E
:1020A000610684788438D9F30E9461068471843192
:1020B000E1F40E945A0688EC90E00E945C062E989B
:1020C00082E090E00E940E17882329F060E082E011
:1020D00090E00E94161784EF91E00E945C062E9A11
:1020E0000E94610684718431D9F388EC90E00E94EB
:1020F0005C06B4CF0E945A0682E090E00E946A0A11
:10210000882309F425C13E9A3F9A81E090E00E941D
:102110006A0A082F0470502E81FF12C001112E98F8
:1021200001EF1FEFB8E0AB2EB12C8CE6E82EF12CBE
:102130000E94610686FF0FC12E9A2F9A0E945A06AE
:1021400082E390E00E945C060E9461068111F8CF54
:10215000809164008E7F8093640080917A00806417
:1021600080937A0080917A0086FDFCCF0091780000
:10217000109179000E943D04AB01BC01C801B0E0A0
:10218000A0E0DC01992788278C019D01040F151F11
:10219000261F371FC901B8012091640021602093D8
:1021A0006400611571058105910511F00E94D0163A
:1021B00080E180930C0182E791E00E948009809188
:1021C000FD069091FE068E010F5F1F4F009709F0EC
:1021D0008CC1C801815097409093F2068093F1061C
:1021E00060E08AEA9AEA0E94CE0361E085E595E51F
:1021F0000E94CE0362E08AEA9AEA0E94CE0363E07C
:1022000085E595E50E94CE0364E08AEA9AEA0E9499
:10221000CE0365E085E595E50E94CE0366E08AEA97
:102220009AEA0E94CE0367E085E595E50E94CE0319
:1022300068E08AEA9AEA0E94CE0369E085E595E5BE
:102240000E94CE036AE08AEA9AEA0E94CE036BE01B
:1022500085E595E50E94CE036CE08AEA9AEA0E9441
:10226000CE036DE085E595E50E94CE036EE08AEA37
:102270009AEA0E94CE036FE085E595E50E94CE03C1
:1022800080E190E00E9410157C018EE596E0D70178
:1022900013969C938E93129789EF96E017969C93D2
:1022A0008E93169788E291E011969C938E9380E32B
:1022B00091E015969C938E93149719961C921E92FA
:1022C00018971C961C921C971D961C921D971E9683
:1022D0001C921E971F961C921F97F092C801E092C5
:1022E000C7018CE396E01B969C938E931A978CE023
:1022F00090E00E9410156C014091450669EF76E070
:102300000E943A0AF701D186C08682E891E00E94D5
:10231000800981E991E00E948009EE24E3948FB75F
:10232000F8944091CA015091CB016091CC01709119
:10233000CD018FBFF090C001FF2009F4DBC01092E7
:10234000C001E0E0F0E0EF2B51F30E940000E5CF88
:102350003E983F98DACE552029F00430110511F44B
:102360002E9A2F9881E00E94DF03980117FF04C086
:1023700022273327201B310B27703327C80117FD75
:102380000796A3E095958795AA95E1F717FF05C0F5
:102390000197A501421B530B9A01BC017695762F3C
:1023A00066277795679560527E4FB0E0A0E01501F3
:1023B000221A330A8E3F5FEF950709F446C048E5BD
:1023C00050E0FD01E758F94F4F013B01F0E86F0E77
:1023D000711C8F3F9807C9F0F401E41BF50B449082
:1023E0006701C41AD50AC60ED71EE42DF0E0022EEE
:1023F00002C0EE0FFF1F0A94E2F7F8A7EFA3F60161
:102400004080FFA14F2AF601408221153105C9F015
:10241000F401E41BF50B44906701C41AD50AC60CFD
:10242000D71CE42DF0E0022C02C0F595E7950A9444
:10243000E2F7F8A7EFA3F6014080FFA14F2AF601CB
:1024400040824150510909F0C4CF0196A85ABF4FAC
:1024500060587F4FA03BB10509F0ACCF0E946906E0
:102460008FE090E00E945C060F5F1F4F093111055D
:1024700009F05ECE552011F02F9A2D9880E991E059
:102480000E945C060E945A0681E090E00E946A0A5F
:1024900080FF56CE8AE090E00E946A0A9FEF980F74
:1024A0009E3F08F04DCE22E330E03093C4012093EC
:1024B000C30128E330E03093C6012093C5010BE04F
:1024C00010E0682F89EF96E00E94AC06C8010E94D8
:1024D0006A0A0F5F1F4F0131110599F70E946906C3
:1024E00088EE93E00E945C062BCE9801281B390BE6
:1024F000C90172CE8091C101F42FF81B8F2F9091EA
:102500000C01F91740F48F5F891708F01ACFE3BE6A
:10251000889513BE16CFE092C0014093C10180910F
:10252000BE019091BF0101969093BF018093BE01BF
:1025300087EE96E00E947F0E8F2DE0EEF1E0811194
:102540008FEF002481938193819381930394D1F73A
:102550001092C6011092C5011092C4011092C301DD
:102560000E9461068093C2010E9461069091C80694
:102570009F5F9093C8069091C2069093C106809386
:10258000C206682F69236093C306282F209529234C
:102590002093C506909598239093C406C090C906D1
:1025A000D090C6064C2D4150550BDA01F090C7066D
:1025B000EAECF6E050E040E070E0822F90E0B42ECC
:1025C0009B01042E02C0359527950A94E2F720FF5F
:1025D0000EC020812C1510F42F5F208320812C1534
:1025E00030F020852F5F2C1508F04AC020879C0111
:1025F0000B2C02C0359527950A94E2F720FF02C004
:1026000010821086A19021E030E001C0220FBA9420
:10261000EAF7AC14B8F1D22AB780BA161B06B1F5A6
:10262000F22A4F5F5F4F4830510549F6D092C606F7
:10263000F092C706F12C8091C006F81650F168E4BC
:10264000C62E66E0D62EB12CA12C80915C0690910E
:102650005D06A816B9060CF09DC0D601ED91FD915E
:102660006D0180819181009739F0DC01ED91FC9141
:102670000190F081E02D0995BFEFAB1ABB0AE5CFC1
:102680001086B5CFB22EB094DB20C6CF2095F222B3
:10269000C8CFE0915E06F0915F062F2D30E0D901A2
:1026A000AA0FBB1FA858B94F5C90D901AA0FBB1F36
:1026B000A05AB94F8D919C916C0152E0C522DD2446
:1026C0003C0164E0662277241C01A8E02A2233241E
:1026D000AC014071552758A74FA35C0150E2A522D9
:1026E000BB24AC01407455274C0160E88622992434
:1026F000DC01AA27B170BC016627727080FF04C09C
:102700009381952181E0951180E0CD2829F0948175
:102710009521591201C081E0672829F09281952105
:10272000591201C081E02328C1F0958195215912E9
:1027300018C081E0AB28D1F4452B51F5892809F464
:102740006BC181E09581952119F4882309F446C174
:1027500091E0672B09F045C149C1CFA0D8A4CD288D
:1027600021F78111E6CFAB2809F452C1968195215A
:10277000591611F3452B19F093819521F9F6811122
:10278000DDCF892819F4AB2B09F428C180E0DACF1A
:1027900081E0F2CF1092C4011092C3011092C601E1
:1027A0001092C50160E671E0CE0181960E94500B47
:1027B000C090C701D090C801F601A084B18467EA37
:1027C00071E0CE014B960E94500B6FE571E0CE0197
:1027D0000F960E94500BD50119966C91C8010E946A
:1027E000FD0AB801CE0109960E94360BBE01615F59
:1027F0007F4FCE0109960E94C20ABC01CE014B96C2
:102800000E94D50ACE0109960E94320AC8010E9490
:10281000320ACE010F960E94320A6FE571E0C801BC
:102820000E94500BF6016485CE0109960E94FD0AB4
:102830006EEA71E0CE0145960E94500BBE016B5EC0
:102840007F4FCE010F960E94360BBE01675F7F4F10
:10285000CE010F960E94C20AB8010E94C20ABC01B2
:10286000CE014B960E94D50ACE010F960E94320AE5
:10287000CE0145960E94320ACE0109960E94320A84
:10288000C8010E94320A6FE571E0C8010E94500B36
:10289000D6011D966C91CE0109960E94FD0A62EB4D
:1028A00071E0CE0145960E94500BBE016B5E7F4FDA
:1028B000CE010F960E94360BBE01675F7F4FCE019F
:1028C0000F960E94C20AB8010E94C20ABC01CE0142
:1028D0004B960E94D50ACE010F960E94320ACE0175
:1028E00045960E94320ACE0109960E94320AC8011A
:1028F0000E94320ABE01655E7F4FCE0181960E9422
:10290000D50ACE014B960E94320A6FE571E0CE01E6
:102910004B960E94500B62E671E0CE0145960E94F4
:10292000500B6091C006CE0109960E94FD0ABE01BF
:10293000675F7F4FCE010F960E94360BBE016B5E24
:102940007F4FCE010F960E94C20A6C014AE0B80187
:102950008CE090E00E94D916F80101900020E9F780
:102960003197AF01401B510BB801C6010E94960A76
:10297000811103C0C6010E94200ABE01655E7F4F1F
:10298000C6010E94C20ABC01C8010E94360BCE01DA
:102990000F960E94320ACE0109960E94320ACE0199
:1029A00045960E94320ACE014B960E94320AB80127
:1029B000CE0181960E94D50AC8010E94320A4DA11B
:1029C0005EA169A17AA189EF96E00E942705CE0158
:1029D00081960E94320A0E946906B3CC672BB1F03F
:1029E00090E08681582211F4992381F0D901AA0F31
:1029F000BB1FA855B94F220F331FF901E057F94FFC
:102A00000190F081E02D8D919C910995F39413CE66
:102A1000452B09F0B1CEB5CEAB2B09F499CE91CEB2
:102A20000F931F93CF93DF938230910510F482E0D0
:102A300090E0E091FF06F091000730E020E0B0E088
:102A4000A0E0309799F42115310509F44AC0281BFC
:102A5000390B24303105D8F58A819B8161157105C8
:102A600089F1FB0193838283FE0111C04081518172
:102A70000281138148175907E0F04817590799F464
:102A8000109761F012960C93129713961C9332963E
:102A9000CF01DF91CF911F910F9108950093FF0611
:102AA00010930007F4CF2115310551F04217530759
:102AB00038F0A901DB019A01BD01DF01F801C1CFA6
:102AC000EF01F9CF909300078093FF06CDCFFE0171
:102AD000E20FF31F819391932250310939832883A8
:102AE000D7CF2091FD063091FE06232B41F4209193
:102AF0000F01309110013093FE062093FD062091C6
:102B00000D0130910E012115310541F42DB73EB76D
:102B10004091110150911201241B350BE091FD06EB
:102B2000F091FE06E217F307A0F42E1B3F0B2817C7
:102B3000390778F0AC014E5F5F4F2417350748F036
:102B40004E0F5F1F5093FE064093FD0681939193B5
:102B50009FCFF0E0E0E09CCFCF93DF930097E9F0C8
:102B6000FC01329713821282A091FF06B0910007F8
:102B7000ED0130E020E01097A1F420813181820F37
:102B8000931F2091FD063091FE062817390709F0A2
:102B900061C0F093FE06E093FD06DF91CF910895AA
:102BA000EA01CE17DF07E8F54A815B819E014115F6
:102BB0005105B1F7E901FB83EA8349915991C40FAB
:102BC000D51FEC17FD0761F4808191810296840F77
:102BD000951FE90199838883828193819B838A83EE
:102BE000F0E0E0E012968D919C9113970097B9F573
:102BF0002D913C911197CD010296820F931F209148
:102C0000FD063091FE062817390739F6309751F541
:102C1000109200071092FF06B093FE06A093FD06E7
:102C2000BCCFD383C28340815181840F951FC817C5
:102C3000D90761F44E5F5F4F88819981480F591F12
:102C4000518340838A819B8193838283211531053F
:102C500009F0B0CFF0930007E093FF069ECFFD018F
:102C6000DC01C0CF13821282D7CF8F929F92AF9296
:102C7000BF92CF92DF92EF92FF92CF93DF93EC015E
:102C8000688179818A819B81611571058105910532
:102C900021F464E279ED8BE597E02DE133EF41E03B
:102CA00050E00E94241749015A019B01AC01A7EA98
:102CB000B1E40E9443176B017C01ACEEB4EFA501B7
:102CC00094010E945117C60ED71EE81EF91EF7FE8A
:102CD00006C081E0C81AD108E10880E8F80AC88275
:102CE000D982EA82FB82C701B6019F77DF91CF913B
:102CF000FF90EF90DF90CF90BF90AF909F908F901C
:102D000008958F929F92AF92BF92CF92DF92EF92EF
:102D1000FF926091130170911401809115019091BF
:102D20001601611571058105910521F464E279EDC3
:102D30008BE597E02DE133EF41E050E00E9424174E
:102D400049015A019B01AC01A7EAB1E40E94431773
:102D50006B017C01ACEEB4EFA50194010E94511708
:102D6000C60ED71EE81EF91EF7FE06C081E0C81A7F
:102D7000D108E10880E8F80AC0921301D09214014A
:102D8000E0921501F0921601C701B6019F77FF90FE
:102D9000EF90DF90CF90BF90AF909F908F9008956D
:102DA00060931301709314018093150190931601A1
:102DB0000895BB274A3031F4992322F4BDE290955F
:102DC00081959F4F0C94E516BB27FB015527AA2739
:102DD000880F991FAA1FA41710F0A41B83955051A8
:102DE000B9F7A05DAA3308F0A95DA193009779F720
:102DF000B111B1931192CB010C94FE16DC01FC01D0
:102E0000672F71917723E1F7329704C07C916D931E
:102E100070836291AE17BF07C8F30895F999FECF8A
:102E200092BD81BDF89A992780B50895262FF9990A
:102E3000FECF1FBA92BD81BD20BD0FB6F894FA9A9D
:102E4000F99A0FBE01960895052E97FB1EF4009483
:102E50000E943B1757FD07D00E948D1707FC03D037
:102E60004EF40C943B1750954095309521953F4F6B
:102E70004F4F5F4F089590958095709561957F4F66
:102E80008F4F9F4F08950E94AF17A59F900DB49F3D
:102E9000900DA49F800D911D11240895B7FF0C94EF
:102EA00043170E944317821B930B08952F923F9262
:102EB0004F925F926F927F928F929F92AF92BF924A
:102EC000CF92DF92EF92FF920F931F93CF93DF93F6
:102ED000CDB7DEB7CA1BDB0B0FB6F894DEBF0FBE53
:102EE000CDBF09942A88398848885F846E847D84A0
:102EF0008C849B84AA84B984C884DF80EE80FD80A2
:102F00000C811B81AA81B981CE0FD11D0FB6F89417
:102F1000DEBF0FBECDBFED010895A1E21A2EAA1BA0
:102F2000BB1BFD010DC0AA1FBB1FEE1FFF1FA21779
:102F3000B307E407F50720F0A21BB30BE40BF50B76
:102F4000661F771F881F991F1A9469F760957095FF
:102F5000809590959B01AC01BD01CF010895A29F82
:102F6000B001B39FC001A39F700D811D1124911D5D
:102F7000B29F700D811D1124911D089597FB072E9E
:102F800016F4009407D077FD09D00E94D21707FCF1
:102F900005D03EF4909581959F4F08957095619569
:102FA0007F4F0895AA1BBB1B51E107C0AA1FBB1F7F
:102FB000A617B70710F0A61BB70B881F991F5A95C5
:102FC000A9F780959095BC01CD010895EE0FFF1FE4
:102FD0000590F491E02D0994B0E0A0E0E2EFF7E174
:102FE0000C9458178C01009751F4CB010E941015D6
:102FF0008C01C801CDB7DEB7E0E10C947417FC0179
:10300000E60FF71F9C0122503109E217F30708F47D
:103010009DC0D901CD91DC911197C617D70798F0C3
:10302000C530D10530F3CE0104978617970708F312
:10303000C61BD70B2297C193D1936D937C93CF017D
:103040000E94AC15D6CF5B01AC1ABD0A4C018C0EA8
:103050009D1EA091FF06B0910007512C412CF12C30
:10306000E12C109731F58091FD069091FE068815B0
:10307000990509F05CC04616570608F058C08091C3
:103080000D0190910E01009741F48DB79EB74091CC
:10309000110150911201841B950BE817F90708F0F4
:1030A00055C0F093FE06E093FD06F901718360833D
:1030B000A0CF8D919C91119712966C9012971396B8
:1030C0007C901397A815B90559F56C0142E0C40E20
:1030D000D11CCA14DB0420F1AC014A195B09DA01E6
:1030E0001296159780F06282738251834083D901D2
:1030F0006D937C93E114F10471F0D7011396FC9366
:10310000EE93129776CF22968C0F9D1FF901918333
:103110008083F301EFCFF0930007E093FF0669CFC0
:103120004816590608F42C017D01D3019ACFCB0132
:103130000E9410157C01009749F0AE01B8010E9471
:10314000AE18C8010E94AC15870153CF10E000E013
:1031500050CF81E090E0F8940C94BE18FB01DC01A4
:1031600002C001900D9241505040D8F70895FB01E4
:10317000DC0101900D920020E1F70895F894FFCF53
:10318000FFFFFFFF00E10000000000001000000151
:103190000780000100000000000000EB0700C18074
:1031A000810000000000000041070F07FCFF000045
:1031B0001A0700000000D9055405FA05EF0540067E
:1031C000FE051C0600000000CD097F0EFCFF00007C
:1031D000AC0E00000000AC062705220921090D0AEB
:1031E00000543A00536574757020537461727465AD
:1031F000640041726475626F792053746172746502
:1032000064004C6F6164696E6720426F6172642173
:1032100000426F617264204D616E61676572205378
:103220007461727465640073697A653A2000583A73
:063230002000593A2000C5
:00000001FF
